{
	"Coin Flip Contract.sol": {
		"CoinFlip": {
			"abi": [
				{
					"inputs": [],
					"name": "bet",
					"outputs": [
						{
							"internalType": "uint256",
							"name": "",
							"type": "uint256"
						}
					],
					"stateMutability": "view",
					"type": "function"
				},
				{
					"inputs": [],
					"name": "cancel",
					"outputs": [],
					"stateMutability": "nonpayable",
					"type": "function"
				},
				{
					"inputs": [],
					"name": "expiration",
					"outputs": [
						{
							"internalType": "uint256",
							"name": "",
							"type": "uint256"
						}
					],
					"stateMutability": "view",
					"type": "function"
				},
				{
					"inputs": [
						{
							"internalType": "bool",
							"name": "choice",
							"type": "bool"
						},
						{
							"internalType": "uint256",
							"name": "nonce",
							"type": "uint256"
						}
					],
					"name": "getHash",
					"outputs": [
						{
							"internalType": "bytes32",
							"name": "",
							"type": "bytes32"
						}
					],
					"stateMutability": "pure",
					"type": "function"
				},
				{
					"inputs": [
						{
							"internalType": "bytes32",
							"name": "hash",
							"type": "bytes32"
						}
					],
					"name": "makeBet",
					"outputs": [],
					"stateMutability": "payable",
					"type": "function"
				},
				{
					"inputs": [
						{
							"internalType": "bool",
							"name": "choice",
							"type": "bool"
						},
						{
							"internalType": "uint256",
							"name": "nonce",
							"type": "uint256"
						}
					],
					"name": "reveal",
					"outputs": [],
					"stateMutability": "nonpayable",
					"type": "function"
				},
				{
					"inputs": [
						{
							"internalType": "bool",
							"name": "choice",
							"type": "bool"
						}
					],
					"name": "takeBet",
					"outputs": [],
					"stateMutability": "payable",
					"type": "function"
				},
				{
					"inputs": [],
					"name": "timeout",
					"outputs": [],
					"stateMutability": "nonpayable",
					"type": "function"
				}
			],
			"devdoc": {
				"kind": "dev",
				"methods": {},
				"version": 1
			},
			"evm": {
				"assembly": "    /* \"Coin Flip Contract.sol\":782:4638  contract CoinFlip {... */\n  mstore(0x40, 0x80)\n    /* \"Coin Flip Contract.sol\":908:911  0x0 */\n  0x00\n    /* \"Coin Flip Contract.sol\":874:912  address payable player1 = payable(0x0) */\n  dup1\n  exp(0x0100, 0x00)\n  dup2\n  sload\n  dup2\n  0xffffffffffffffffffffffffffffffffffffffff\n  mul\n  not\n  and\n  swap1\n  dup4\n  0xffffffffffffffffffffffffffffffffffffffff\n  and\n  mul\n  or\n  swap1\n  sstore\n  pop\n    /* \"Coin Flip Contract.sol\":953:956  0x0 */\n  0x00\n    /* \"Coin Flip Contract.sol\":919:957  address payable player2 = payable(0x0) */\n  0x01\n  exp(0x0100, 0x00)\n  dup2\n  sload\n  dup2\n  0xffffffffffffffffffffffffffffffffffffffff\n  mul\n  not\n  and\n  swap1\n  dup4\n  0xffffffffffffffffffffffffffffffffffffffff\n  and\n  mul\n  or\n  swap1\n  sstore\n  pop\n    /* \"Coin Flip Contract.sol\":1142:1150  2**256-1 */\n  0xffffffffffffffffffffffffffffffffffffffffffffffffffffffffffffffff\n    /* \"Coin Flip Contract.sol\":1114:1150  uint256 public expiration = 2**256-1 */\n  0x05\n  sstore\n    /* \"Coin Flip Contract.sol\":782:4638  contract CoinFlip {... */\n  callvalue\n  dup1\n  iszero\n  tag_1\n  jumpi\n  0x00\n  dup1\n  revert\ntag_1:\n  pop\n  dataSize(sub_0)\n  dup1\n  dataOffset(sub_0)\n  0x00\n  codecopy\n  0x00\n  return\nstop\n\nsub_0: assembly {\n        /* \"Coin Flip Contract.sol\":782:4638  contract CoinFlip {... */\n      mstore(0x40, 0x80)\n      jumpi(tag_1, lt(calldatasize, 0x04))\n      shr(0xe0, calldataload(0x00))\n      dup1\n      0x4665096d\n      gt\n      tag_10\n      jumpi\n      dup1\n      0x4665096d\n      eq\n      tag_6\n      jumpi\n      dup1\n      0x70dea79a\n      eq\n      tag_7\n      jumpi\n      dup1\n      0xe6759813\n      eq\n      tag_8\n      jumpi\n      dup1\n      0xea8a1af0\n      eq\n      tag_9\n      jumpi\n      jump(tag_1)\n    tag_10:\n      dup1\n      0x11610c25\n      eq\n      tag_2\n      jumpi\n      dup1\n      0x284152dc\n      eq\n      tag_3\n      jumpi\n      dup1\n      0x38a3fde7\n      eq\n      tag_4\n      jumpi\n      dup1\n      0x39f3027d\n      eq\n      tag_5\n      jumpi\n    tag_1:\n      0x00\n      dup1\n      revert\n        /* \"Coin Flip Contract.sol\":1089:1107  uint256 public bet */\n    tag_2:\n      callvalue\n      dup1\n      iszero\n      tag_11\n      jumpi\n      0x00\n      dup1\n      revert\n    tag_11:\n      pop\n      tag_12\n      tag_13\n      jump\t// in\n    tag_12:\n      mload(0x40)\n      tag_14\n      swap2\n      swap1\n      tag_15\n      jump\t// in\n    tag_14:\n      mload(0x40)\n      dup1\n      swap2\n      sub\n      swap1\n      return\n        /* \"Coin Flip Contract.sol\":1581:2018  function makeBet(bytes32 hash) external payable {... */\n    tag_3:\n      tag_16\n      0x04\n      dup1\n      calldatasize\n      sub\n      dup2\n      add\n      swap1\n      tag_17\n      swap2\n      swap1\n      tag_18\n      jump\t// in\n    tag_17:\n      tag_19\n      jump\t// in\n    tag_16:\n      stop\n        /* \"Coin Flip Contract.sol\":2024:2600  function takeBet(bool choice) external payable {... */\n    tag_4:\n      tag_20\n      0x04\n      dup1\n      calldatasize\n      sub\n      dup2\n      add\n      swap1\n      tag_21\n      swap2\n      swap1\n      tag_22\n      jump\t// in\n    tag_21:\n      tag_23\n      jump\t// in\n    tag_20:\n      stop\n        /* \"Coin Flip Contract.sol\":2834:3709  function reveal(bool choice, uint256 nonce) external {... */\n    tag_5:\n      callvalue\n      dup1\n      iszero\n      tag_24\n      jumpi\n      0x00\n      dup1\n      revert\n    tag_24:\n      pop\n      tag_25\n      0x04\n      dup1\n      calldatasize\n      sub\n      dup2\n      add\n      swap1\n      tag_26\n      swap2\n      swap1\n      tag_27\n      jump\t// in\n    tag_26:\n      tag_28\n      jump\t// in\n    tag_25:\n      stop\n        /* \"Coin Flip Contract.sol\":1114:1150  uint256 public expiration = 2**256-1 */\n    tag_6:\n      callvalue\n      dup1\n      iszero\n      tag_29\n      jumpi\n      0x00\n      dup1\n      revert\n    tag_29:\n      pop\n      tag_30\n      tag_31\n      jump\t// in\n    tag_30:\n      mload(0x40)\n      tag_32\n      swap2\n      swap1\n      tag_15\n      jump\t// in\n    tag_32:\n      mload(0x40)\n      dup1\n      swap2\n      sub\n      swap1\n      return\n        /* \"Coin Flip Contract.sol\":4282:4633  function timeout() external {... */\n    tag_7:\n      callvalue\n      dup1\n      iszero\n      tag_33\n      jumpi\n      0x00\n      dup1\n      revert\n    tag_33:\n      pop\n      tag_34\n      tag_35\n      jump\t// in\n    tag_34:\n      stop\n        /* \"Coin Flip Contract.sol\":1362:1501  function getHash(bool choice, uint256 nonce) external pure returns (bytes32) {... */\n    tag_8:\n      callvalue\n      dup1\n      iszero\n      tag_36\n      jumpi\n      0x00\n      dup1\n      revert\n    tag_36:\n      pop\n      tag_37\n      0x04\n      dup1\n      calldatasize\n      sub\n      dup2\n      add\n      swap1\n      tag_38\n      swap2\n      swap1\n      tag_27\n      jump\t// in\n    tag_38:\n      tag_39\n      jump\t// in\n    tag_37:\n      mload(0x40)\n      tag_40\n      swap2\n      swap1\n      tag_41\n      jump\t// in\n    tag_40:\n      mload(0x40)\n      dup1\n      swap2\n      sub\n      swap1\n      return\n        /* \"Coin Flip Contract.sol\":3778:4175  function cancel() external {... */\n    tag_9:\n      callvalue\n      dup1\n      iszero\n      tag_42\n      jumpi\n      0x00\n      dup1\n      revert\n    tag_42:\n      pop\n      tag_43\n      tag_44\n      jump\t// in\n    tag_43:\n      stop\n        /* \"Coin Flip Contract.sol\":1089:1107  uint256 public bet */\n    tag_13:\n      sload(0x04)\n      dup2\n      jump\t// out\n        /* \"Coin Flip Contract.sol\":1581:2018  function makeBet(bytes32 hash) external payable {... */\n    tag_19:\n        /* \"Coin Flip Contract.sol\":1742:1745  0x0 */\n      0x00\n        /* \"Coin Flip Contract.sol\":1723:1746  player1 == payable(0x0) */\n      0xffffffffffffffffffffffffffffffffffffffff\n      and\n        /* \"Coin Flip Contract.sol\":1723:1730  player1 */\n      0x00\n      dup1\n      sload\n      swap1\n      0x0100\n      exp\n      swap1\n      div\n      0xffffffffffffffffffffffffffffffffffffffff\n      and\n        /* \"Coin Flip Contract.sol\":1723:1746  player1 == payable(0x0) */\n      0xffffffffffffffffffffffffffffffffffffffff\n      and\n      eq\n        /* \"Coin Flip Contract.sol\":1715:1747  require(player1 == payable(0x0)) */\n      tag_46\n      jumpi\n      0x00\n      dup1\n      revert\n    tag_46:\n        /* \"Coin Flip Contract.sol\":1807:1808  0 */\n      0x00\n        /* \"Coin Flip Contract.sol\":1795:1804  msg.value */\n      callvalue\n        /* \"Coin Flip Contract.sol\":1795:1808  msg.value > 0 */\n      gt\n        /* \"Coin Flip Contract.sol\":1787:1809  require(msg.value > 0) */\n      tag_47\n      jumpi\n      0x00\n      dup1\n      revert\n    tag_47:\n        /* \"Coin Flip Contract.sol\":1876:1886  msg.sender */\n      caller\n        /* \"Coin Flip Contract.sol\":1858:1865  player1 */\n      0x00\n      dup1\n        /* \"Coin Flip Contract.sol\":1858:1887  player1 = payable(msg.sender) */\n      0x0100\n      exp\n      dup2\n      sload\n      dup2\n      0xffffffffffffffffffffffffffffffffffffffff\n      mul\n      not\n      and\n      swap1\n      dup4\n      0xffffffffffffffffffffffffffffffffffffffff\n      and\n      mul\n      or\n      swap1\n      sstore\n      pop\n        /* \"Coin Flip Contract.sol\":1947:1951  hash */\n      dup1\n        /* \"Coin Flip Contract.sol\":1933:1944  p1selection */\n      0x02\n        /* \"Coin Flip Contract.sol\":1933:1951  p1selection = hash */\n      dup2\n      swap1\n      sstore\n      pop\n        /* \"Coin Flip Contract.sol\":2001:2010  msg.value */\n      callvalue\n        /* \"Coin Flip Contract.sol\":1995:1998  bet */\n      0x04\n        /* \"Coin Flip Contract.sol\":1995:2010  bet = msg.value */\n      dup2\n      swap1\n      sstore\n      pop\n        /* \"Coin Flip Contract.sol\":1581:2018  function makeBet(bytes32 hash) external payable {... */\n      pop\n      jump\t// out\n        /* \"Coin Flip Contract.sol\":2024:2600  function takeBet(bool choice) external payable {... */\n    tag_23:\n        /* \"Coin Flip Contract.sol\":2184:2187  0x0 */\n      0x00\n        /* \"Coin Flip Contract.sol\":2165:2188  player2 == payable(0x0) */\n      0xffffffffffffffffffffffffffffffffffffffff\n      and\n        /* \"Coin Flip Contract.sol\":2165:2172  player2 */\n      0x01\n      0x00\n      swap1\n      sload\n      swap1\n      0x0100\n      exp\n      swap1\n      div\n      0xffffffffffffffffffffffffffffffffffffffff\n      and\n        /* \"Coin Flip Contract.sol\":2165:2188  player2 == payable(0x0) */\n      0xffffffffffffffffffffffffffffffffffffffff\n      and\n      eq\n        /* \"Coin Flip Contract.sol\":2157:2189  require(player2 == payable(0x0)) */\n      tag_49\n      jumpi\n      0x00\n      dup1\n      revert\n    tag_49:\n        /* \"Coin Flip Contract.sol\":2275:2278  0x0 */\n      0x00\n        /* \"Coin Flip Contract.sol\":2256:2279  player1 != payable(0x0) */\n      0xffffffffffffffffffffffffffffffffffffffff\n      and\n        /* \"Coin Flip Contract.sol\":2256:2263  player1 */\n      0x00\n      dup1\n      sload\n      swap1\n      0x0100\n      exp\n      swap1\n      div\n      0xffffffffffffffffffffffffffffffffffffffff\n      and\n        /* \"Coin Flip Contract.sol\":2256:2279  player1 != payable(0x0) */\n      0xffffffffffffffffffffffffffffffffffffffff\n      and\n      sub\n        /* \"Coin Flip Contract.sol\":2248:2280  require(player1 != payable(0x0)) */\n      tag_50\n      jumpi\n      0x00\n      dup1\n      revert\n    tag_50:\n        /* \"Coin Flip Contract.sol\":2361:2364  bet */\n      sload(0x04)\n        /* \"Coin Flip Contract.sol\":2348:2357  msg.value */\n      callvalue\n        /* \"Coin Flip Contract.sol\":2348:2364  msg.value == bet */\n      eq\n        /* \"Coin Flip Contract.sol\":2340:2365  require(msg.value == bet) */\n      tag_51\n      jumpi\n      0x00\n      dup1\n      revert\n    tag_51:\n        /* \"Coin Flip Contract.sol\":2433:2443  msg.sender */\n      caller\n        /* \"Coin Flip Contract.sol\":2415:2422  player2 */\n      0x01\n      0x00\n        /* \"Coin Flip Contract.sol\":2415:2444  player2 = payable(msg.sender) */\n      0x0100\n      exp\n      dup2\n      sload\n      dup2\n      0xffffffffffffffffffffffffffffffffffffffff\n      mul\n      not\n      and\n      swap1\n      dup4\n      0xffffffffffffffffffffffffffffffffffffffff\n      and\n      mul\n      or\n      swap1\n      sstore\n      pop\n        /* \"Coin Flip Contract.sol\":2502:2508  choice */\n      dup1\n        /* \"Coin Flip Contract.sol\":2488:2499  p2selection */\n      0x03\n      0x00\n        /* \"Coin Flip Contract.sol\":2488:2508  p2selection = choice */\n      0x0100\n      exp\n      dup2\n      sload\n      dup2\n      0xff\n      mul\n      not\n      and\n      swap1\n      dup4\n      iszero\n      iszero\n      mul\n      or\n      swap1\n      sstore\n      pop\n        /* \"Coin Flip Contract.sol\":2582:2590  24 hours */\n      0x015180\n        /* \"Coin Flip Contract.sol\":2564:2579  block.timestamp */\n      timestamp\n        /* \"Coin Flip Contract.sol\":2564:2590  block.timestamp + 24 hours */\n      tag_52\n      swap2\n      swap1\n      tag_53\n      jump\t// in\n    tag_52:\n        /* \"Coin Flip Contract.sol\":2551:2561  expiration */\n      0x05\n        /* \"Coin Flip Contract.sol\":2551:2590  expiration = block.timestamp + 24 hours */\n      dup2\n      swap1\n      sstore\n      pop\n        /* \"Coin Flip Contract.sol\":2024:2600  function takeBet(bool choice) external payable {... */\n      pop\n      jump\t// out\n        /* \"Coin Flip Contract.sol\":2834:3709  function reveal(bool choice, uint256 nonce) external {... */\n    tag_28:\n        /* \"Coin Flip Contract.sol\":3009:3020  p1selection */\n      sload(0x02)\n        /* \"Coin Flip Contract.sol\":2990:2996  choice */\n      dup3\n        /* \"Coin Flip Contract.sol\":2998:3003  nonce */\n      dup3\n        /* \"Coin Flip Contract.sol\":2979:3004  abi.encode(choice, nonce) */\n      add(0x20, mload(0x40))\n      tag_55\n      swap3\n      swap2\n      swap1\n      tag_56\n      jump\t// in\n    tag_55:\n      mload(0x40)\n      0x20\n      dup2\n      dup4\n      sub\n      sub\n      dup2\n      mstore\n      swap1\n      0x40\n      mstore\n        /* \"Coin Flip Contract.sol\":2969:3005  keccak256(abi.encode(choice, nonce)) */\n      dup1\n      mload\n      swap1\n      0x20\n      add\n      keccak256\n        /* \"Coin Flip Contract.sol\":2969:3020  keccak256(abi.encode(choice, nonce)) == p1selection */\n      eq\n        /* \"Coin Flip Contract.sol\":2961:3021  require(keccak256(abi.encode(choice, nonce)) == p1selection) */\n      tag_57\n      jumpi\n      0x00\n      dup1\n      revert\n    tag_57:\n        /* \"Coin Flip Contract.sol\":3101:3104  0x0 */\n      0x00\n        /* \"Coin Flip Contract.sol\":3082:3105  player2 != payable(0x0) */\n      0xffffffffffffffffffffffffffffffffffffffff\n      and\n        /* \"Coin Flip Contract.sol\":3082:3089  player2 */\n      0x01\n      0x00\n      swap1\n      sload\n      swap1\n      0x0100\n      exp\n      swap1\n      div\n      0xffffffffffffffffffffffffffffffffffffffff\n      and\n        /* \"Coin Flip Contract.sol\":3082:3105  player2 != payable(0x0) */\n      0xffffffffffffffffffffffffffffffffffffffff\n      and\n      sub\n        /* \"Coin Flip Contract.sol\":3074:3106  require(player2 != payable(0x0)) */\n      tag_58\n      jumpi\n      0x00\n      dup1\n      revert\n    tag_58:\n        /* \"Coin Flip Contract.sol\":3187:3197  expiration */\n      sload(0x05)\n        /* \"Coin Flip Contract.sol\":3169:3184  block.timestamp */\n      timestamp\n        /* \"Coin Flip Contract.sol\":3169:3197  block.timestamp < expiration */\n      lt\n        /* \"Coin Flip Contract.sol\":3161:3198  require(block.timestamp < expiration) */\n      tag_59\n      jumpi\n      0x00\n      dup1\n      revert\n    tag_59:\n        /* \"Coin Flip Contract.sol\":3281:3287  choice */\n      dup2\n        /* \"Coin Flip Contract.sol\":3266:3287  p2selection == choice */\n      iszero\n      iszero\n        /* \"Coin Flip Contract.sol\":3266:3277  p2selection */\n      0x03\n      0x00\n      swap1\n      sload\n      swap1\n      0x0100\n      exp\n      swap1\n      div\n      0xff\n      and\n        /* \"Coin Flip Contract.sol\":3266:3287  p2selection == choice */\n      iszero\n      iszero\n      sub\n        /* \"Coin Flip Contract.sol\":3262:3559  if (p2selection == choice) {... */\n      tag_60\n      jumpi\n        /* \"Coin Flip Contract.sol\":3339:3346  player2 */\n      0x01\n      0x00\n      swap1\n      sload\n      swap1\n      0x0100\n      exp\n      swap1\n      div\n      0xffffffffffffffffffffffffffffffffffffffff\n      and\n        /* \"Coin Flip Contract.sol\":3339:3355  player2.transfer */\n      0xffffffffffffffffffffffffffffffffffffffff\n      and\n        /* \"Coin Flip Contract.sol\":3339:3378  player2.transfer(address(this).balance) */\n      0x08fc\n        /* \"Coin Flip Contract.sol\":3356:3377  address(this).balance */\n      selfbalance\n        /* \"Coin Flip Contract.sol\":3339:3378  player2.transfer(address(this).balance) */\n      swap1\n      dup2\n      iszero\n      mul\n      swap1\n      mload(0x40)\n      0x00\n      mload(0x40)\n      dup1\n      dup4\n      sub\n      dup2\n      dup6\n      dup9\n      dup9\n      call\n      swap4\n      pop\n      pop\n      pop\n      pop\n      iszero\n      dup1\n      iszero\n      tag_62\n      jumpi\n      returndatasize\n      0x00\n      dup1\n      returndatacopy\n      revert(0x00, returndatasize)\n    tag_62:\n      pop\n        /* \"Coin Flip Contract.sol\":3262:3559  if (p2selection == choice) {... */\n      jump(tag_63)\n    tag_60:\n        /* \"Coin Flip Contract.sol\":3508:3515  player1 */\n      0x00\n      dup1\n      sload\n      swap1\n      0x0100\n      exp\n      swap1\n      div\n      0xffffffffffffffffffffffffffffffffffffffff\n      and\n        /* \"Coin Flip Contract.sol\":3508:3524  player1.transfer */\n      0xffffffffffffffffffffffffffffffffffffffff\n      and\n        /* \"Coin Flip Contract.sol\":3508:3547  player1.transfer(address(this).balance) */\n      0x08fc\n        /* \"Coin Flip Contract.sol\":3525:3546  address(this).balance */\n      selfbalance\n        /* \"Coin Flip Contract.sol\":3508:3547  player1.transfer(address(this).balance) */\n      swap1\n      dup2\n      iszero\n      mul\n      swap1\n      mload(0x40)\n      0x00\n      mload(0x40)\n      dup1\n      dup4\n      sub\n      dup2\n      dup6\n      dup9\n      dup9\n      call\n      swap4\n      pop\n      pop\n      pop\n      pop\n      iszero\n      dup1\n      iszero\n      tag_65\n      jumpi\n      returndatasize\n      0x00\n      dup1\n      returndatacopy\n      revert(0x00, returndatasize)\n    tag_65:\n      pop\n        /* \"Coin Flip Contract.sol\":3262:3559  if (p2selection == choice) {... */\n    tag_63:\n        /* \"Coin Flip Contract.sol\":3602:3603  0 */\n      0x00\n        /* \"Coin Flip Contract.sol\":3596:3599  bet */\n      0x04\n        /* \"Coin Flip Contract.sol\":3596:3603  bet = 0 */\n      dup2\n      swap1\n      sstore\n      pop\n        /* \"Coin Flip Contract.sol\":3632:3635  0x0 */\n      0x00\n        /* \"Coin Flip Contract.sol\":3614:3621  player1 */\n      dup1\n      0x00\n        /* \"Coin Flip Contract.sol\":3614:3636  player1 = payable(0x0) */\n      0x0100\n      exp\n      dup2\n      sload\n      dup2\n      0xffffffffffffffffffffffffffffffffffffffff\n      mul\n      not\n      and\n      swap1\n      dup4\n      0xffffffffffffffffffffffffffffffffffffffff\n      and\n      mul\n      or\n      swap1\n      sstore\n      pop\n        /* \"Coin Flip Contract.sol\":3665:3668  0x0 */\n      0x00\n        /* \"Coin Flip Contract.sol\":3647:3654  player2 */\n      0x01\n      0x00\n        /* \"Coin Flip Contract.sol\":3647:3669  player2 = payable(0x0) */\n      0x0100\n      exp\n      dup2\n      sload\n      dup2\n      0xffffffffffffffffffffffffffffffffffffffff\n      mul\n      not\n      and\n      swap1\n      dup4\n      0xffffffffffffffffffffffffffffffffffffffff\n      and\n      mul\n      or\n      swap1\n      sstore\n      pop\n        /* \"Coin Flip Contract.sol\":3693:3701  2**256-1 */\n      0xffffffffffffffffffffffffffffffffffffffffffffffffffffffffffffffff\n        /* \"Coin Flip Contract.sol\":3680:3690  expiration */\n      0x05\n        /* \"Coin Flip Contract.sol\":3680:3701  expiration = 2**256-1 */\n      dup2\n      swap1\n      sstore\n      pop\n        /* \"Coin Flip Contract.sol\":2834:3709  function reveal(bool choice, uint256 nonce) external {... */\n      pop\n      pop\n      jump\t// out\n        /* \"Coin Flip Contract.sol\":1114:1150  uint256 public expiration = 2**256-1 */\n    tag_31:\n      sload(0x05)\n      dup2\n      jump\t// out\n        /* \"Coin Flip Contract.sol\":4282:4633  function timeout() external {... */\n    tag_35:\n        /* \"Coin Flip Contract.sol\":4384:4394  expiration */\n      sload(0x05)\n        /* \"Coin Flip Contract.sol\":4365:4380  block.timestamp */\n      timestamp\n        /* \"Coin Flip Contract.sol\":4365:4394  block.timestamp >= expiration */\n      lt\n      iszero\n        /* \"Coin Flip Contract.sol\":4357:4395  require(block.timestamp >= expiration) */\n      tag_67\n      jumpi\n      0x00\n      dup1\n      revert\n    tag_67:\n        /* \"Coin Flip Contract.sol\":4443:4450  player2 */\n      0x01\n      0x00\n      swap1\n      sload\n      swap1\n      0x0100\n      exp\n      swap1\n      div\n      0xffffffffffffffffffffffffffffffffffffffff\n      and\n        /* \"Coin Flip Contract.sol\":4443:4459  player2.transfer */\n      0xffffffffffffffffffffffffffffffffffffffff\n      and\n        /* \"Coin Flip Contract.sol\":4443:4482  player2.transfer(address(this).balance) */\n      0x08fc\n        /* \"Coin Flip Contract.sol\":4460:4481  address(this).balance */\n      selfbalance\n        /* \"Coin Flip Contract.sol\":4443:4482  player2.transfer(address(this).balance) */\n      swap1\n      dup2\n      iszero\n      mul\n      swap1\n      mload(0x40)\n      0x00\n      mload(0x40)\n      dup1\n      dup4\n      sub\n      dup2\n      dup6\n      dup9\n      dup9\n      call\n      swap4\n      pop\n      pop\n      pop\n      pop\n      iszero\n      dup1\n      iszero\n      tag_69\n      jumpi\n      returndatasize\n      0x00\n      dup1\n      returndatacopy\n      revert(0x00, returndatasize)\n    tag_69:\n      pop\n        /* \"Coin Flip Contract.sol\":4526:4527  0 */\n      0x00\n        /* \"Coin Flip Contract.sol\":4520:4523  bet */\n      0x04\n        /* \"Coin Flip Contract.sol\":4520:4527  bet = 0 */\n      dup2\n      swap1\n      sstore\n      pop\n        /* \"Coin Flip Contract.sol\":4556:4559  0x0 */\n      0x00\n        /* \"Coin Flip Contract.sol\":4538:4545  player1 */\n      dup1\n      0x00\n        /* \"Coin Flip Contract.sol\":4538:4560  player1 = payable(0x0) */\n      0x0100\n      exp\n      dup2\n      sload\n      dup2\n      0xffffffffffffffffffffffffffffffffffffffff\n      mul\n      not\n      and\n      swap1\n      dup4\n      0xffffffffffffffffffffffffffffffffffffffff\n      and\n      mul\n      or\n      swap1\n      sstore\n      pop\n        /* \"Coin Flip Contract.sol\":4589:4592  0x0 */\n      0x00\n        /* \"Coin Flip Contract.sol\":4571:4578  player2 */\n      0x01\n      0x00\n        /* \"Coin Flip Contract.sol\":4571:4593  player2 = payable(0x0) */\n      0x0100\n      exp\n      dup2\n      sload\n      dup2\n      0xffffffffffffffffffffffffffffffffffffffff\n      mul\n      not\n      and\n      swap1\n      dup4\n      0xffffffffffffffffffffffffffffffffffffffff\n      and\n      mul\n      or\n      swap1\n      sstore\n      pop\n        /* \"Coin Flip Contract.sol\":4617:4625  2**256-1 */\n      0xffffffffffffffffffffffffffffffffffffffffffffffffffffffffffffffff\n        /* \"Coin Flip Contract.sol\":4604:4614  expiration */\n      0x05\n        /* \"Coin Flip Contract.sol\":4604:4625  expiration = 2**256-1 */\n      dup2\n      swap1\n      sstore\n      pop\n        /* \"Coin Flip Contract.sol\":4282:4633  function timeout() external {... */\n      jump\t// out\n        /* \"Coin Flip Contract.sol\":1362:1501  function getHash(bool choice, uint256 nonce) external pure returns (bytes32) {... */\n    tag_39:\n        /* \"Coin Flip Contract.sol\":1430:1437  bytes32 */\n      0x00\n        /* \"Coin Flip Contract.sol\":1478:1484  choice */\n      dup3\n        /* \"Coin Flip Contract.sol\":1486:1491  nonce */\n      dup3\n        /* \"Coin Flip Contract.sol\":1467:1492  abi.encode(choice, nonce) */\n      add(0x20, mload(0x40))\n      tag_71\n      swap3\n      swap2\n      swap1\n      tag_56\n      jump\t// in\n    tag_71:\n      mload(0x40)\n      0x20\n      dup2\n      dup4\n      sub\n      sub\n      dup2\n      mstore\n      swap1\n      0x40\n      mstore\n        /* \"Coin Flip Contract.sol\":1457:1493  keccak256(abi.encode(choice, nonce)) */\n      dup1\n      mload\n      swap1\n      0x20\n      add\n      keccak256\n        /* \"Coin Flip Contract.sol\":1450:1493  return keccak256(abi.encode(choice, nonce)) */\n      swap1\n      pop\n        /* \"Coin Flip Contract.sol\":1362:1501  function getHash(bool choice, uint256 nonce) external pure returns (bytes32) {... */\n      swap3\n      swap2\n      pop\n      pop\n      jump\t// out\n        /* \"Coin Flip Contract.sol\":3778:4175  function cancel() external {... */\n    tag_44:\n        /* \"Coin Flip Contract.sol\":3873:3880  player1 */\n      0x00\n      dup1\n      sload\n      swap1\n      0x0100\n      exp\n      swap1\n      div\n      0xffffffffffffffffffffffffffffffffffffffff\n      and\n        /* \"Coin Flip Contract.sol\":3859:3880  msg.sender == player1 */\n      0xffffffffffffffffffffffffffffffffffffffff\n      and\n        /* \"Coin Flip Contract.sol\":3859:3869  msg.sender */\n      caller\n        /* \"Coin Flip Contract.sol\":3859:3880  msg.sender == player1 */\n      0xffffffffffffffffffffffffffffffffffffffff\n      and\n      eq\n        /* \"Coin Flip Contract.sol\":3851:3881  require(msg.sender == player1) */\n      tag_73\n      jumpi\n      0x00\n      dup1\n      revert\n    tag_73:\n        /* \"Coin Flip Contract.sol\":3966:3969  0x0 */\n      0x00\n        /* \"Coin Flip Contract.sol\":3947:3970  player2 == payable(0x0) */\n      0xffffffffffffffffffffffffffffffffffffffff\n      and\n        /* \"Coin Flip Contract.sol\":3947:3954  player2 */\n      0x01\n      0x00\n      swap1\n      sload\n      swap1\n      0x0100\n      exp\n      swap1\n      div\n      0xffffffffffffffffffffffffffffffffffffffff\n      and\n        /* \"Coin Flip Contract.sol\":3947:3970  player2 == payable(0x0) */\n      0xffffffffffffffffffffffffffffffffffffffff\n      and\n      eq\n        /* \"Coin Flip Contract.sol\":3939:3971  require(player2 == payable(0x0)) */\n      tag_74\n      jumpi\n      0x00\n      dup1\n      revert\n    tag_74:\n        /* \"Coin Flip Contract.sol\":4018:4025  player1 */\n      0x00\n      dup1\n      sload\n      swap1\n      0x0100\n      exp\n      swap1\n      div\n      0xffffffffffffffffffffffffffffffffffffffff\n      and\n        /* \"Coin Flip Contract.sol\":4018:4034  player1.transfer */\n      0xffffffffffffffffffffffffffffffffffffffff\n      and\n        /* \"Coin Flip Contract.sol\":4018:4057  player1.transfer(address(this).balance) */\n      0x08fc\n        /* \"Coin Flip Contract.sol\":4035:4056  address(this).balance */\n      selfbalance\n        /* \"Coin Flip Contract.sol\":4018:4057  player1.transfer(address(this).balance) */\n      swap1\n      dup2\n      iszero\n      mul\n      swap1\n      mload(0x40)\n      0x00\n      mload(0x40)\n      dup1\n      dup4\n      sub\n      dup2\n      dup6\n      dup9\n      dup9\n      call\n      swap4\n      pop\n      pop\n      pop\n      pop\n      iszero\n      dup1\n      iszero\n      tag_76\n      jumpi\n      returndatasize\n      0x00\n      dup1\n      returndatacopy\n      revert(0x00, returndatasize)\n    tag_76:\n      pop\n        /* \"Coin Flip Contract.sol\":4101:4102  0 */\n      0x00\n        /* \"Coin Flip Contract.sol\":4095:4098  bet */\n      0x04\n        /* \"Coin Flip Contract.sol\":4095:4102  bet = 0 */\n      dup2\n      swap1\n      sstore\n      pop\n        /* \"Coin Flip Contract.sol\":4131:4134  0x0 */\n      0x00\n        /* \"Coin Flip Contract.sol\":4113:4120  player1 */\n      dup1\n      0x00\n        /* \"Coin Flip Contract.sol\":4113:4135  player1 = payable(0x0) */\n      0x0100\n      exp\n      dup2\n      sload\n      dup2\n      0xffffffffffffffffffffffffffffffffffffffff\n      mul\n      not\n      and\n      swap1\n      dup4\n      0xffffffffffffffffffffffffffffffffffffffff\n      and\n      mul\n      or\n      swap1\n      sstore\n      pop\n        /* \"Coin Flip Contract.sol\":4159:4167  2**256-1 */\n      0xffffffffffffffffffffffffffffffffffffffffffffffffffffffffffffffff\n        /* \"Coin Flip Contract.sol\":4146:4156  expiration */\n      0x05\n        /* \"Coin Flip Contract.sol\":4146:4167  expiration = 2**256-1 */\n      dup2\n      swap1\n      sstore\n      pop\n        /* \"Coin Flip Contract.sol\":3778:4175  function cancel() external {... */\n      jump\t// out\n        /* \"#utility.yul\":7:84   */\n    tag_77:\n        /* \"#utility.yul\":44:51   */\n      0x00\n        /* \"#utility.yul\":73:78   */\n      dup2\n        /* \"#utility.yul\":62:78   */\n      swap1\n      pop\n        /* \"#utility.yul\":7:84   */\n      swap2\n      swap1\n      pop\n      jump\t// out\n        /* \"#utility.yul\":90:208   */\n    tag_78:\n        /* \"#utility.yul\":177:201   */\n      tag_96\n        /* \"#utility.yul\":195:200   */\n      dup2\n        /* \"#utility.yul\":177:201   */\n      tag_77\n      jump\t// in\n    tag_96:\n        /* \"#utility.yul\":172:175   */\n      dup3\n        /* \"#utility.yul\":165:202   */\n      mstore\n        /* \"#utility.yul\":90:208   */\n      pop\n      pop\n      jump\t// out\n        /* \"#utility.yul\":214:436   */\n    tag_15:\n        /* \"#utility.yul\":307:311   */\n      0x00\n        /* \"#utility.yul\":345:347   */\n      0x20\n        /* \"#utility.yul\":334:343   */\n      dup3\n        /* \"#utility.yul\":330:348   */\n      add\n        /* \"#utility.yul\":322:348   */\n      swap1\n      pop\n        /* \"#utility.yul\":358:429   */\n      tag_98\n        /* \"#utility.yul\":426:427   */\n      0x00\n        /* \"#utility.yul\":415:424   */\n      dup4\n        /* \"#utility.yul\":411:428   */\n      add\n        /* \"#utility.yul\":402:408   */\n      dup5\n        /* \"#utility.yul\":358:429   */\n      tag_78\n      jump\t// in\n    tag_98:\n        /* \"#utility.yul\":214:436   */\n      swap3\n      swap2\n      pop\n      pop\n      jump\t// out\n        /* \"#utility.yul\":523:640   */\n    tag_80:\n        /* \"#utility.yul\":632:633   */\n      0x00\n        /* \"#utility.yul\":629:630   */\n      dup1\n        /* \"#utility.yul\":622:634   */\n      revert\n        /* \"#utility.yul\":769:846   */\n    tag_82:\n        /* \"#utility.yul\":806:813   */\n      0x00\n        /* \"#utility.yul\":835:840   */\n      dup2\n        /* \"#utility.yul\":824:840   */\n      swap1\n      pop\n        /* \"#utility.yul\":769:846   */\n      swap2\n      swap1\n      pop\n      jump\t// out\n        /* \"#utility.yul\":852:974   */\n    tag_83:\n        /* \"#utility.yul\":925:949   */\n      tag_104\n        /* \"#utility.yul\":943:948   */\n      dup2\n        /* \"#utility.yul\":925:949   */\n      tag_82\n      jump\t// in\n    tag_104:\n        /* \"#utility.yul\":918:923   */\n      dup2\n        /* \"#utility.yul\":915:950   */\n      eq\n        /* \"#utility.yul\":905:968   */\n      tag_105\n      jumpi\n        /* \"#utility.yul\":964:965   */\n      0x00\n        /* \"#utility.yul\":961:962   */\n      dup1\n        /* \"#utility.yul\":954:966   */\n      revert\n        /* \"#utility.yul\":905:968   */\n    tag_105:\n        /* \"#utility.yul\":852:974   */\n      pop\n      jump\t// out\n        /* \"#utility.yul\":980:1119   */\n    tag_84:\n        /* \"#utility.yul\":1026:1031   */\n      0x00\n        /* \"#utility.yul\":1064:1070   */\n      dup2\n        /* \"#utility.yul\":1051:1071   */\n      calldataload\n        /* \"#utility.yul\":1042:1071   */\n      swap1\n      pop\n        /* \"#utility.yul\":1080:1113   */\n      tag_107\n        /* \"#utility.yul\":1107:1112   */\n      dup2\n        /* \"#utility.yul\":1080:1113   */\n      tag_83\n      jump\t// in\n    tag_107:\n        /* \"#utility.yul\":980:1119   */\n      swap3\n      swap2\n      pop\n      pop\n      jump\t// out\n        /* \"#utility.yul\":1125:1454   */\n    tag_18:\n        /* \"#utility.yul\":1184:1190   */\n      0x00\n        /* \"#utility.yul\":1233:1235   */\n      0x20\n        /* \"#utility.yul\":1221:1230   */\n      dup3\n        /* \"#utility.yul\":1212:1219   */\n      dup5\n        /* \"#utility.yul\":1208:1231   */\n      sub\n        /* \"#utility.yul\":1204:1236   */\n      slt\n        /* \"#utility.yul\":1201:1320   */\n      iszero\n      tag_109\n      jumpi\n        /* \"#utility.yul\":1239:1318   */\n      tag_110\n      tag_80\n      jump\t// in\n    tag_110:\n        /* \"#utility.yul\":1201:1320   */\n    tag_109:\n        /* \"#utility.yul\":1359:1360   */\n      0x00\n        /* \"#utility.yul\":1384:1437   */\n      tag_111\n        /* \"#utility.yul\":1429:1436   */\n      dup5\n        /* \"#utility.yul\":1420:1426   */\n      dup3\n        /* \"#utility.yul\":1409:1418   */\n      dup6\n        /* \"#utility.yul\":1405:1427   */\n      add\n        /* \"#utility.yul\":1384:1437   */\n      tag_84\n      jump\t// in\n    tag_111:\n        /* \"#utility.yul\":1374:1437   */\n      swap2\n      pop\n        /* \"#utility.yul\":1330:1447   */\n      pop\n        /* \"#utility.yul\":1125:1454   */\n      swap3\n      swap2\n      pop\n      pop\n      jump\t// out\n        /* \"#utility.yul\":1460:1550   */\n    tag_85:\n        /* \"#utility.yul\":1494:1501   */\n      0x00\n        /* \"#utility.yul\":1537:1542   */\n      dup2\n        /* \"#utility.yul\":1530:1543   */\n      iszero\n        /* \"#utility.yul\":1523:1544   */\n      iszero\n        /* \"#utility.yul\":1512:1544   */\n      swap1\n      pop\n        /* \"#utility.yul\":1460:1550   */\n      swap2\n      swap1\n      pop\n      jump\t// out\n        /* \"#utility.yul\":1556:1672   */\n    tag_86:\n        /* \"#utility.yul\":1626:1647   */\n      tag_114\n        /* \"#utility.yul\":1641:1646   */\n      dup2\n        /* \"#utility.yul\":1626:1647   */\n      tag_85\n      jump\t// in\n    tag_114:\n        /* \"#utility.yul\":1619:1624   */\n      dup2\n        /* \"#utility.yul\":1616:1648   */\n      eq\n        /* \"#utility.yul\":1606:1666   */\n      tag_115\n      jumpi\n        /* \"#utility.yul\":1662:1663   */\n      0x00\n        /* \"#utility.yul\":1659:1660   */\n      dup1\n        /* \"#utility.yul\":1652:1664   */\n      revert\n        /* \"#utility.yul\":1606:1666   */\n    tag_115:\n        /* \"#utility.yul\":1556:1672   */\n      pop\n      jump\t// out\n        /* \"#utility.yul\":1678:1811   */\n    tag_87:\n        /* \"#utility.yul\":1721:1726   */\n      0x00\n        /* \"#utility.yul\":1759:1765   */\n      dup2\n        /* \"#utility.yul\":1746:1766   */\n      calldataload\n        /* \"#utility.yul\":1737:1766   */\n      swap1\n      pop\n        /* \"#utility.yul\":1775:1805   */\n      tag_117\n        /* \"#utility.yul\":1799:1804   */\n      dup2\n        /* \"#utility.yul\":1775:1805   */\n      tag_86\n      jump\t// in\n    tag_117:\n        /* \"#utility.yul\":1678:1811   */\n      swap3\n      swap2\n      pop\n      pop\n      jump\t// out\n        /* \"#utility.yul\":1817:2140   */\n    tag_22:\n        /* \"#utility.yul\":1873:1879   */\n      0x00\n        /* \"#utility.yul\":1922:1924   */\n      0x20\n        /* \"#utility.yul\":1910:1919   */\n      dup3\n        /* \"#utility.yul\":1901:1908   */\n      dup5\n        /* \"#utility.yul\":1897:1920   */\n      sub\n        /* \"#utility.yul\":1893:1925   */\n      slt\n        /* \"#utility.yul\":1890:2009   */\n      iszero\n      tag_119\n      jumpi\n        /* \"#utility.yul\":1928:2007   */\n      tag_120\n      tag_80\n      jump\t// in\n    tag_120:\n        /* \"#utility.yul\":1890:2009   */\n    tag_119:\n        /* \"#utility.yul\":2048:2049   */\n      0x00\n        /* \"#utility.yul\":2073:2123   */\n      tag_121\n        /* \"#utility.yul\":2115:2122   */\n      dup5\n        /* \"#utility.yul\":2106:2112   */\n      dup3\n        /* \"#utility.yul\":2095:2104   */\n      dup6\n        /* \"#utility.yul\":2091:2113   */\n      add\n        /* \"#utility.yul\":2073:2123   */\n      tag_87\n      jump\t// in\n    tag_121:\n        /* \"#utility.yul\":2063:2123   */\n      swap2\n      pop\n        /* \"#utility.yul\":2019:2133   */\n      pop\n        /* \"#utility.yul\":1817:2140   */\n      swap3\n      swap2\n      pop\n      pop\n      jump\t// out\n        /* \"#utility.yul\":2146:2268   */\n    tag_88:\n        /* \"#utility.yul\":2219:2243   */\n      tag_123\n        /* \"#utility.yul\":2237:2242   */\n      dup2\n        /* \"#utility.yul\":2219:2243   */\n      tag_77\n      jump\t// in\n    tag_123:\n        /* \"#utility.yul\":2212:2217   */\n      dup2\n        /* \"#utility.yul\":2209:2244   */\n      eq\n        /* \"#utility.yul\":2199:2262   */\n      tag_124\n      jumpi\n        /* \"#utility.yul\":2258:2259   */\n      0x00\n        /* \"#utility.yul\":2255:2256   */\n      dup1\n        /* \"#utility.yul\":2248:2260   */\n      revert\n        /* \"#utility.yul\":2199:2262   */\n    tag_124:\n        /* \"#utility.yul\":2146:2268   */\n      pop\n      jump\t// out\n        /* \"#utility.yul\":2274:2413   */\n    tag_89:\n        /* \"#utility.yul\":2320:2325   */\n      0x00\n        /* \"#utility.yul\":2358:2364   */\n      dup2\n        /* \"#utility.yul\":2345:2365   */\n      calldataload\n        /* \"#utility.yul\":2336:2365   */\n      swap1\n      pop\n        /* \"#utility.yul\":2374:2407   */\n      tag_126\n        /* \"#utility.yul\":2401:2406   */\n      dup2\n        /* \"#utility.yul\":2374:2407   */\n      tag_88\n      jump\t// in\n    tag_126:\n        /* \"#utility.yul\":2274:2413   */\n      swap3\n      swap2\n      pop\n      pop\n      jump\t// out\n        /* \"#utility.yul\":2419:2887   */\n    tag_27:\n        /* \"#utility.yul\":2484:2490   */\n      0x00\n        /* \"#utility.yul\":2492:2498   */\n      dup1\n        /* \"#utility.yul\":2541:2543   */\n      0x40\n        /* \"#utility.yul\":2529:2538   */\n      dup4\n        /* \"#utility.yul\":2520:2527   */\n      dup6\n        /* \"#utility.yul\":2516:2539   */\n      sub\n        /* \"#utility.yul\":2512:2544   */\n      slt\n        /* \"#utility.yul\":2509:2628   */\n      iszero\n      tag_128\n      jumpi\n        /* \"#utility.yul\":2547:2626   */\n      tag_129\n      tag_80\n      jump\t// in\n    tag_129:\n        /* \"#utility.yul\":2509:2628   */\n    tag_128:\n        /* \"#utility.yul\":2667:2668   */\n      0x00\n        /* \"#utility.yul\":2692:2742   */\n      tag_130\n        /* \"#utility.yul\":2734:2741   */\n      dup6\n        /* \"#utility.yul\":2725:2731   */\n      dup3\n        /* \"#utility.yul\":2714:2723   */\n      dup7\n        /* \"#utility.yul\":2710:2732   */\n      add\n        /* \"#utility.yul\":2692:2742   */\n      tag_87\n      jump\t// in\n    tag_130:\n        /* \"#utility.yul\":2682:2742   */\n      swap3\n      pop\n        /* \"#utility.yul\":2638:2752   */\n      pop\n        /* \"#utility.yul\":2791:2793   */\n      0x20\n        /* \"#utility.yul\":2817:2870   */\n      tag_131\n        /* \"#utility.yul\":2862:2869   */\n      dup6\n        /* \"#utility.yul\":2853:2859   */\n      dup3\n        /* \"#utility.yul\":2842:2851   */\n      dup7\n        /* \"#utility.yul\":2838:2860   */\n      add\n        /* \"#utility.yul\":2817:2870   */\n      tag_89\n      jump\t// in\n    tag_131:\n        /* \"#utility.yul\":2807:2870   */\n      swap2\n      pop\n        /* \"#utility.yul\":2762:2880   */\n      pop\n        /* \"#utility.yul\":2419:2887   */\n      swap3\n      pop\n      swap3\n      swap1\n      pop\n      jump\t// out\n        /* \"#utility.yul\":2893:3011   */\n    tag_90:\n        /* \"#utility.yul\":2980:3004   */\n      tag_133\n        /* \"#utility.yul\":2998:3003   */\n      dup2\n        /* \"#utility.yul\":2980:3004   */\n      tag_82\n      jump\t// in\n    tag_133:\n        /* \"#utility.yul\":2975:2978   */\n      dup3\n        /* \"#utility.yul\":2968:3005   */\n      mstore\n        /* \"#utility.yul\":2893:3011   */\n      pop\n      pop\n      jump\t// out\n        /* \"#utility.yul\":3017:3239   */\n    tag_41:\n        /* \"#utility.yul\":3110:3114   */\n      0x00\n        /* \"#utility.yul\":3148:3150   */\n      0x20\n        /* \"#utility.yul\":3137:3146   */\n      dup3\n        /* \"#utility.yul\":3133:3151   */\n      add\n        /* \"#utility.yul\":3125:3151   */\n      swap1\n      pop\n        /* \"#utility.yul\":3161:3232   */\n      tag_135\n        /* \"#utility.yul\":3229:3230   */\n      0x00\n        /* \"#utility.yul\":3218:3227   */\n      dup4\n        /* \"#utility.yul\":3214:3231   */\n      add\n        /* \"#utility.yul\":3205:3211   */\n      dup5\n        /* \"#utility.yul\":3161:3232   */\n      tag_90\n      jump\t// in\n    tag_135:\n        /* \"#utility.yul\":3017:3239   */\n      swap3\n      swap2\n      pop\n      pop\n      jump\t// out\n        /* \"#utility.yul\":3245:3425   */\n    tag_91:\n        /* \"#utility.yul\":3293:3370   */\n      0x4e487b7100000000000000000000000000000000000000000000000000000000\n        /* \"#utility.yul\":3290:3291   */\n      0x00\n        /* \"#utility.yul\":3283:3371   */\n      mstore\n        /* \"#utility.yul\":3390:3394   */\n      0x11\n        /* \"#utility.yul\":3387:3388   */\n      0x04\n        /* \"#utility.yul\":3380:3395   */\n      mstore\n        /* \"#utility.yul\":3414:3418   */\n      0x24\n        /* \"#utility.yul\":3411:3412   */\n      0x00\n        /* \"#utility.yul\":3404:3419   */\n      revert\n        /* \"#utility.yul\":3431:3622   */\n    tag_53:\n        /* \"#utility.yul\":3471:3474   */\n      0x00\n        /* \"#utility.yul\":3490:3510   */\n      tag_138\n        /* \"#utility.yul\":3508:3509   */\n      dup3\n        /* \"#utility.yul\":3490:3510   */\n      tag_77\n      jump\t// in\n    tag_138:\n        /* \"#utility.yul\":3485:3510   */\n      swap2\n      pop\n        /* \"#utility.yul\":3524:3544   */\n      tag_139\n        /* \"#utility.yul\":3542:3543   */\n      dup4\n        /* \"#utility.yul\":3524:3544   */\n      tag_77\n      jump\t// in\n    tag_139:\n        /* \"#utility.yul\":3519:3544   */\n      swap3\n      pop\n        /* \"#utility.yul\":3567:3568   */\n      dup3\n        /* \"#utility.yul\":3564:3565   */\n      dup3\n        /* \"#utility.yul\":3560:3569   */\n      add\n        /* \"#utility.yul\":3553:3569   */\n      swap1\n      pop\n        /* \"#utility.yul\":3588:3591   */\n      dup1\n        /* \"#utility.yul\":3585:3586   */\n      dup3\n        /* \"#utility.yul\":3582:3592   */\n      gt\n        /* \"#utility.yul\":3579:3615   */\n      iszero\n      tag_140\n      jumpi\n        /* \"#utility.yul\":3595:3613   */\n      tag_141\n      tag_91\n      jump\t// in\n    tag_141:\n        /* \"#utility.yul\":3579:3615   */\n    tag_140:\n        /* \"#utility.yul\":3431:3622   */\n      swap3\n      swap2\n      pop\n      pop\n      jump\t// out\n        /* \"#utility.yul\":3628:3737   */\n    tag_92:\n        /* \"#utility.yul\":3709:3730   */\n      tag_143\n        /* \"#utility.yul\":3724:3729   */\n      dup2\n        /* \"#utility.yul\":3709:3730   */\n      tag_85\n      jump\t// in\n    tag_143:\n        /* \"#utility.yul\":3704:3707   */\n      dup3\n        /* \"#utility.yul\":3697:3731   */\n      mstore\n        /* \"#utility.yul\":3628:3737   */\n      pop\n      pop\n      jump\t// out\n        /* \"#utility.yul\":3743:4063   */\n    tag_56:\n        /* \"#utility.yul\":3858:3862   */\n      0x00\n        /* \"#utility.yul\":3896:3898   */\n      0x40\n        /* \"#utility.yul\":3885:3894   */\n      dup3\n        /* \"#utility.yul\":3881:3899   */\n      add\n        /* \"#utility.yul\":3873:3899   */\n      swap1\n      pop\n        /* \"#utility.yul\":3909:3974   */\n      tag_145\n        /* \"#utility.yul\":3971:3972   */\n      0x00\n        /* \"#utility.yul\":3960:3969   */\n      dup4\n        /* \"#utility.yul\":3956:3973   */\n      add\n        /* \"#utility.yul\":3947:3953   */\n      dup6\n        /* \"#utility.yul\":3909:3974   */\n      tag_92\n      jump\t// in\n    tag_145:\n        /* \"#utility.yul\":3984:4056   */\n      tag_146\n        /* \"#utility.yul\":4052:4054   */\n      0x20\n        /* \"#utility.yul\":4041:4050   */\n      dup4\n        /* \"#utility.yul\":4037:4055   */\n      add\n        /* \"#utility.yul\":4028:4034   */\n      dup5\n        /* \"#utility.yul\":3984:4056   */\n      tag_78\n      jump\t// in\n    tag_146:\n        /* \"#utility.yul\":3743:4063   */\n      swap4\n      swap3\n      pop\n      pop\n      pop\n      jump\t// out\n\n    auxdata: 0xa264697066735822122025e7ba87de1e0978bdfdaf8561f84a4e379b283e2281990062553f81f58cc8eb64736f6c63430008110033\n}\n",
				"bytecode": {
					"linkReferences": {},
					"object": "608060405260008060006101000a81548173ffffffffffffffffffffffffffffffffffffffff021916908373ffffffffffffffffffffffffffffffffffffffff1602179055506000600160006101000a81548173ffffffffffffffffffffffffffffffffffffffff021916908373ffffffffffffffffffffffffffffffffffffffff1602179055507fffffffffffffffffffffffffffffffffffffffffffffffffffffffffffffffff6005553480156100b757600080fd5b50610b32806100c76000396000f3fe60806040526004361061007b5760003560e01c80634665096d1161004e5780634665096d1461010c57806370dea79a14610137578063e67598131461014e578063ea8a1af01461018b5761007b565b806311610c2514610080578063284152dc146100ab57806338a3fde7146100c757806339f3027d146100e3575b600080fd5b34801561008c57600080fd5b506100956101a2565b6040516100a291906108e3565b60405180910390f35b6100c560048036038101906100c09190610939565b6101a8565b005b6100e160048036038101906100dc919061099e565b61025f565b005b3480156100ef57600080fd5b5061010a600480360381019061010591906109f7565b610394565b005b34801561011857600080fd5b506101216105d9565b60405161012e91906108e3565b60405180910390f35b34801561014357600080fd5b5061014c6105df565b005b34801561015a57600080fd5b50610175600480360381019061017091906109f7565b61070b565b6040516101829190610a46565b60405180910390f35b34801561019757600080fd5b506101a061073e565b005b60045481565b600073ffffffffffffffffffffffffffffffffffffffff1660008054906101000a900473ffffffffffffffffffffffffffffffffffffffff1673ffffffffffffffffffffffffffffffffffffffff161461020157600080fd5b6000341161020e57600080fd5b336000806101000a81548173ffffffffffffffffffffffffffffffffffffffff021916908373ffffffffffffffffffffffffffffffffffffffff160217905550806002819055503460048190555050565b600073ffffffffffffffffffffffffffffffffffffffff16600160009054906101000a900473ffffffffffffffffffffffffffffffffffffffff1673ffffffffffffffffffffffffffffffffffffffff16146102ba57600080fd5b600073ffffffffffffffffffffffffffffffffffffffff1660008054906101000a900473ffffffffffffffffffffffffffffffffffffffff1673ffffffffffffffffffffffffffffffffffffffff160361031357600080fd5b600454341461032157600080fd5b33600160006101000a81548173ffffffffffffffffffffffffffffffffffffffff021916908373ffffffffffffffffffffffffffffffffffffffff16021790555080600360006101000a81548160ff021916908315150217905550620151804261038b9190610a90565b60058190555050565b60025482826040516020016103aa929190610ad3565b60405160208183030381529060405280519060200120146103ca57600080fd5b600073ffffffffffffffffffffffffffffffffffffffff16600160009054906101000a900473ffffffffffffffffffffffffffffffffffffffff1673ffffffffffffffffffffffffffffffffffffffff160361042557600080fd5b600554421061043357600080fd5b811515600360009054906101000a900460ff161515036104bb57600160009054906101000a900473ffffffffffffffffffffffffffffffffffffffff1673ffffffffffffffffffffffffffffffffffffffff166108fc479081150290604051600060405180830381858888f193505050501580156104b5573d6000803e3d6000fd5b50610523565b60008054906101000a900473ffffffffffffffffffffffffffffffffffffffff1673ffffffffffffffffffffffffffffffffffffffff166108fc479081150290604051600060405180830381858888f19350505050158015610521573d6000803e3d6000fd5b505b600060048190555060008060006101000a81548173ffffffffffffffffffffffffffffffffffffffff021916908373ffffffffffffffffffffffffffffffffffffffff1602179055506000600160006101000a81548173ffffffffffffffffffffffffffffffffffffffff021916908373ffffffffffffffffffffffffffffffffffffffff1602179055507fffffffffffffffffffffffffffffffffffffffffffffffffffffffffffffffff6005819055505050565b60055481565b6005544210156105ee57600080fd5b600160009054906101000a900473ffffffffffffffffffffffffffffffffffffffff1673ffffffffffffffffffffffffffffffffffffffff166108fc479081150290604051600060405180830381858888f19350505050158015610656573d6000803e3d6000fd5b50600060048190555060008060006101000a81548173ffffffffffffffffffffffffffffffffffffffff021916908373ffffffffffffffffffffffffffffffffffffffff1602179055506000600160006101000a81548173ffffffffffffffffffffffffffffffffffffffff021916908373ffffffffffffffffffffffffffffffffffffffff1602179055507fffffffffffffffffffffffffffffffffffffffffffffffffffffffffffffffff600581905550565b60008282604051602001610720929190610ad3565b60405160208183030381529060405280519060200120905092915050565b60008054906101000a900473ffffffffffffffffffffffffffffffffffffffff1673ffffffffffffffffffffffffffffffffffffffff163373ffffffffffffffffffffffffffffffffffffffff161461079657600080fd5b600073ffffffffffffffffffffffffffffffffffffffff16600160009054906101000a900473ffffffffffffffffffffffffffffffffffffffff1673ffffffffffffffffffffffffffffffffffffffff16146107f157600080fd5b60008054906101000a900473ffffffffffffffffffffffffffffffffffffffff1673ffffffffffffffffffffffffffffffffffffffff166108fc479081150290604051600060405180830381858888f19350505050158015610857573d6000803e3d6000fd5b50600060048190555060008060006101000a81548173ffffffffffffffffffffffffffffffffffffffff021916908373ffffffffffffffffffffffffffffffffffffffff1602179055507fffffffffffffffffffffffffffffffffffffffffffffffffffffffffffffffff600581905550565b6000819050919050565b6108dd816108ca565b82525050565b60006020820190506108f860008301846108d4565b92915050565b600080fd5b6000819050919050565b61091681610903565b811461092157600080fd5b50565b6000813590506109338161090d565b92915050565b60006020828403121561094f5761094e6108fe565b5b600061095d84828501610924565b91505092915050565b60008115159050919050565b61097b81610966565b811461098657600080fd5b50565b60008135905061099881610972565b92915050565b6000602082840312156109b4576109b36108fe565b5b60006109c284828501610989565b91505092915050565b6109d4816108ca565b81146109df57600080fd5b50565b6000813590506109f1816109cb565b92915050565b60008060408385031215610a0e57610a0d6108fe565b5b6000610a1c85828601610989565b9250506020610a2d858286016109e2565b9150509250929050565b610a4081610903565b82525050565b6000602082019050610a5b6000830184610a37565b92915050565b7f4e487b7100000000000000000000000000000000000000000000000000000000600052601160045260246000fd5b6000610a9b826108ca565b9150610aa6836108ca565b9250828201905080821115610abe57610abd610a61565b5b92915050565b610acd81610966565b82525050565b6000604082019050610ae86000830185610ac4565b610af560208301846108d4565b939250505056fea264697066735822122025e7ba87de1e0978bdfdaf8561f84a4e379b283e2281990062553f81f58cc8eb64736f6c63430008110033",
					"opcodes": "PUSH1 0x80 PUSH1 0x40 MSTORE PUSH1 0x0 DUP1 PUSH1 0x0 PUSH2 0x100 EXP DUP2 SLOAD DUP2 PUSH20 0xFFFFFFFFFFFFFFFFFFFFFFFFFFFFFFFFFFFFFFFF MUL NOT AND SWAP1 DUP4 PUSH20 0xFFFFFFFFFFFFFFFFFFFFFFFFFFFFFFFFFFFFFFFF AND MUL OR SWAP1 SSTORE POP PUSH1 0x0 PUSH1 0x1 PUSH1 0x0 PUSH2 0x100 EXP DUP2 SLOAD DUP2 PUSH20 0xFFFFFFFFFFFFFFFFFFFFFFFFFFFFFFFFFFFFFFFF MUL NOT AND SWAP1 DUP4 PUSH20 0xFFFFFFFFFFFFFFFFFFFFFFFFFFFFFFFFFFFFFFFF AND MUL OR SWAP1 SSTORE POP PUSH32 0xFFFFFFFFFFFFFFFFFFFFFFFFFFFFFFFFFFFFFFFFFFFFFFFFFFFFFFFFFFFFFFFF PUSH1 0x5 SSTORE CALLVALUE DUP1 ISZERO PUSH2 0xB7 JUMPI PUSH1 0x0 DUP1 REVERT JUMPDEST POP PUSH2 0xB32 DUP1 PUSH2 0xC7 PUSH1 0x0 CODECOPY PUSH1 0x0 RETURN INVALID PUSH1 0x80 PUSH1 0x40 MSTORE PUSH1 0x4 CALLDATASIZE LT PUSH2 0x7B JUMPI PUSH1 0x0 CALLDATALOAD PUSH1 0xE0 SHR DUP1 PUSH4 0x4665096D GT PUSH2 0x4E JUMPI DUP1 PUSH4 0x4665096D EQ PUSH2 0x10C JUMPI DUP1 PUSH4 0x70DEA79A EQ PUSH2 0x137 JUMPI DUP1 PUSH4 0xE6759813 EQ PUSH2 0x14E JUMPI DUP1 PUSH4 0xEA8A1AF0 EQ PUSH2 0x18B JUMPI PUSH2 0x7B JUMP JUMPDEST DUP1 PUSH4 0x11610C25 EQ PUSH2 0x80 JUMPI DUP1 PUSH4 0x284152DC EQ PUSH2 0xAB JUMPI DUP1 PUSH4 0x38A3FDE7 EQ PUSH2 0xC7 JUMPI DUP1 PUSH4 0x39F3027D EQ PUSH2 0xE3 JUMPI JUMPDEST PUSH1 0x0 DUP1 REVERT JUMPDEST CALLVALUE DUP1 ISZERO PUSH2 0x8C JUMPI PUSH1 0x0 DUP1 REVERT JUMPDEST POP PUSH2 0x95 PUSH2 0x1A2 JUMP JUMPDEST PUSH1 0x40 MLOAD PUSH2 0xA2 SWAP2 SWAP1 PUSH2 0x8E3 JUMP JUMPDEST PUSH1 0x40 MLOAD DUP1 SWAP2 SUB SWAP1 RETURN JUMPDEST PUSH2 0xC5 PUSH1 0x4 DUP1 CALLDATASIZE SUB DUP2 ADD SWAP1 PUSH2 0xC0 SWAP2 SWAP1 PUSH2 0x939 JUMP JUMPDEST PUSH2 0x1A8 JUMP JUMPDEST STOP JUMPDEST PUSH2 0xE1 PUSH1 0x4 DUP1 CALLDATASIZE SUB DUP2 ADD SWAP1 PUSH2 0xDC SWAP2 SWAP1 PUSH2 0x99E JUMP JUMPDEST PUSH2 0x25F JUMP JUMPDEST STOP JUMPDEST CALLVALUE DUP1 ISZERO PUSH2 0xEF JUMPI PUSH1 0x0 DUP1 REVERT JUMPDEST POP PUSH2 0x10A PUSH1 0x4 DUP1 CALLDATASIZE SUB DUP2 ADD SWAP1 PUSH2 0x105 SWAP2 SWAP1 PUSH2 0x9F7 JUMP JUMPDEST PUSH2 0x394 JUMP JUMPDEST STOP JUMPDEST CALLVALUE DUP1 ISZERO PUSH2 0x118 JUMPI PUSH1 0x0 DUP1 REVERT JUMPDEST POP PUSH2 0x121 PUSH2 0x5D9 JUMP JUMPDEST PUSH1 0x40 MLOAD PUSH2 0x12E SWAP2 SWAP1 PUSH2 0x8E3 JUMP JUMPDEST PUSH1 0x40 MLOAD DUP1 SWAP2 SUB SWAP1 RETURN JUMPDEST CALLVALUE DUP1 ISZERO PUSH2 0x143 JUMPI PUSH1 0x0 DUP1 REVERT JUMPDEST POP PUSH2 0x14C PUSH2 0x5DF JUMP JUMPDEST STOP JUMPDEST CALLVALUE DUP1 ISZERO PUSH2 0x15A JUMPI PUSH1 0x0 DUP1 REVERT JUMPDEST POP PUSH2 0x175 PUSH1 0x4 DUP1 CALLDATASIZE SUB DUP2 ADD SWAP1 PUSH2 0x170 SWAP2 SWAP1 PUSH2 0x9F7 JUMP JUMPDEST PUSH2 0x70B JUMP JUMPDEST PUSH1 0x40 MLOAD PUSH2 0x182 SWAP2 SWAP1 PUSH2 0xA46 JUMP JUMPDEST PUSH1 0x40 MLOAD DUP1 SWAP2 SUB SWAP1 RETURN JUMPDEST CALLVALUE DUP1 ISZERO PUSH2 0x197 JUMPI PUSH1 0x0 DUP1 REVERT JUMPDEST POP PUSH2 0x1A0 PUSH2 0x73E JUMP JUMPDEST STOP JUMPDEST PUSH1 0x4 SLOAD DUP2 JUMP JUMPDEST PUSH1 0x0 PUSH20 0xFFFFFFFFFFFFFFFFFFFFFFFFFFFFFFFFFFFFFFFF AND PUSH1 0x0 DUP1 SLOAD SWAP1 PUSH2 0x100 EXP SWAP1 DIV PUSH20 0xFFFFFFFFFFFFFFFFFFFFFFFFFFFFFFFFFFFFFFFF AND PUSH20 0xFFFFFFFFFFFFFFFFFFFFFFFFFFFFFFFFFFFFFFFF AND EQ PUSH2 0x201 JUMPI PUSH1 0x0 DUP1 REVERT JUMPDEST PUSH1 0x0 CALLVALUE GT PUSH2 0x20E JUMPI PUSH1 0x0 DUP1 REVERT JUMPDEST CALLER PUSH1 0x0 DUP1 PUSH2 0x100 EXP DUP2 SLOAD DUP2 PUSH20 0xFFFFFFFFFFFFFFFFFFFFFFFFFFFFFFFFFFFFFFFF MUL NOT AND SWAP1 DUP4 PUSH20 0xFFFFFFFFFFFFFFFFFFFFFFFFFFFFFFFFFFFFFFFF AND MUL OR SWAP1 SSTORE POP DUP1 PUSH1 0x2 DUP2 SWAP1 SSTORE POP CALLVALUE PUSH1 0x4 DUP2 SWAP1 SSTORE POP POP JUMP JUMPDEST PUSH1 0x0 PUSH20 0xFFFFFFFFFFFFFFFFFFFFFFFFFFFFFFFFFFFFFFFF AND PUSH1 0x1 PUSH1 0x0 SWAP1 SLOAD SWAP1 PUSH2 0x100 EXP SWAP1 DIV PUSH20 0xFFFFFFFFFFFFFFFFFFFFFFFFFFFFFFFFFFFFFFFF AND PUSH20 0xFFFFFFFFFFFFFFFFFFFFFFFFFFFFFFFFFFFFFFFF AND EQ PUSH2 0x2BA JUMPI PUSH1 0x0 DUP1 REVERT JUMPDEST PUSH1 0x0 PUSH20 0xFFFFFFFFFFFFFFFFFFFFFFFFFFFFFFFFFFFFFFFF AND PUSH1 0x0 DUP1 SLOAD SWAP1 PUSH2 0x100 EXP SWAP1 DIV PUSH20 0xFFFFFFFFFFFFFFFFFFFFFFFFFFFFFFFFFFFFFFFF AND PUSH20 0xFFFFFFFFFFFFFFFFFFFFFFFFFFFFFFFFFFFFFFFF AND SUB PUSH2 0x313 JUMPI PUSH1 0x0 DUP1 REVERT JUMPDEST PUSH1 0x4 SLOAD CALLVALUE EQ PUSH2 0x321 JUMPI PUSH1 0x0 DUP1 REVERT JUMPDEST CALLER PUSH1 0x1 PUSH1 0x0 PUSH2 0x100 EXP DUP2 SLOAD DUP2 PUSH20 0xFFFFFFFFFFFFFFFFFFFFFFFFFFFFFFFFFFFFFFFF MUL NOT AND SWAP1 DUP4 PUSH20 0xFFFFFFFFFFFFFFFFFFFFFFFFFFFFFFFFFFFFFFFF AND MUL OR SWAP1 SSTORE POP DUP1 PUSH1 0x3 PUSH1 0x0 PUSH2 0x100 EXP DUP2 SLOAD DUP2 PUSH1 0xFF MUL NOT AND SWAP1 DUP4 ISZERO ISZERO MUL OR SWAP1 SSTORE POP PUSH3 0x15180 TIMESTAMP PUSH2 0x38B SWAP2 SWAP1 PUSH2 0xA90 JUMP JUMPDEST PUSH1 0x5 DUP2 SWAP1 SSTORE POP POP JUMP JUMPDEST PUSH1 0x2 SLOAD DUP3 DUP3 PUSH1 0x40 MLOAD PUSH1 0x20 ADD PUSH2 0x3AA SWAP3 SWAP2 SWAP1 PUSH2 0xAD3 JUMP JUMPDEST PUSH1 0x40 MLOAD PUSH1 0x20 DUP2 DUP4 SUB SUB DUP2 MSTORE SWAP1 PUSH1 0x40 MSTORE DUP1 MLOAD SWAP1 PUSH1 0x20 ADD KECCAK256 EQ PUSH2 0x3CA JUMPI PUSH1 0x0 DUP1 REVERT JUMPDEST PUSH1 0x0 PUSH20 0xFFFFFFFFFFFFFFFFFFFFFFFFFFFFFFFFFFFFFFFF AND PUSH1 0x1 PUSH1 0x0 SWAP1 SLOAD SWAP1 PUSH2 0x100 EXP SWAP1 DIV PUSH20 0xFFFFFFFFFFFFFFFFFFFFFFFFFFFFFFFFFFFFFFFF AND PUSH20 0xFFFFFFFFFFFFFFFFFFFFFFFFFFFFFFFFFFFFFFFF AND SUB PUSH2 0x425 JUMPI PUSH1 0x0 DUP1 REVERT JUMPDEST PUSH1 0x5 SLOAD TIMESTAMP LT PUSH2 0x433 JUMPI PUSH1 0x0 DUP1 REVERT JUMPDEST DUP2 ISZERO ISZERO PUSH1 0x3 PUSH1 0x0 SWAP1 SLOAD SWAP1 PUSH2 0x100 EXP SWAP1 DIV PUSH1 0xFF AND ISZERO ISZERO SUB PUSH2 0x4BB JUMPI PUSH1 0x1 PUSH1 0x0 SWAP1 SLOAD SWAP1 PUSH2 0x100 EXP SWAP1 DIV PUSH20 0xFFFFFFFFFFFFFFFFFFFFFFFFFFFFFFFFFFFFFFFF AND PUSH20 0xFFFFFFFFFFFFFFFFFFFFFFFFFFFFFFFFFFFFFFFF AND PUSH2 0x8FC SELFBALANCE SWAP1 DUP2 ISZERO MUL SWAP1 PUSH1 0x40 MLOAD PUSH1 0x0 PUSH1 0x40 MLOAD DUP1 DUP4 SUB DUP2 DUP6 DUP9 DUP9 CALL SWAP4 POP POP POP POP ISZERO DUP1 ISZERO PUSH2 0x4B5 JUMPI RETURNDATASIZE PUSH1 0x0 DUP1 RETURNDATACOPY RETURNDATASIZE PUSH1 0x0 REVERT JUMPDEST POP PUSH2 0x523 JUMP JUMPDEST PUSH1 0x0 DUP1 SLOAD SWAP1 PUSH2 0x100 EXP SWAP1 DIV PUSH20 0xFFFFFFFFFFFFFFFFFFFFFFFFFFFFFFFFFFFFFFFF AND PUSH20 0xFFFFFFFFFFFFFFFFFFFFFFFFFFFFFFFFFFFFFFFF AND PUSH2 0x8FC SELFBALANCE SWAP1 DUP2 ISZERO MUL SWAP1 PUSH1 0x40 MLOAD PUSH1 0x0 PUSH1 0x40 MLOAD DUP1 DUP4 SUB DUP2 DUP6 DUP9 DUP9 CALL SWAP4 POP POP POP POP ISZERO DUP1 ISZERO PUSH2 0x521 JUMPI RETURNDATASIZE PUSH1 0x0 DUP1 RETURNDATACOPY RETURNDATASIZE PUSH1 0x0 REVERT JUMPDEST POP JUMPDEST PUSH1 0x0 PUSH1 0x4 DUP2 SWAP1 SSTORE POP PUSH1 0x0 DUP1 PUSH1 0x0 PUSH2 0x100 EXP DUP2 SLOAD DUP2 PUSH20 0xFFFFFFFFFFFFFFFFFFFFFFFFFFFFFFFFFFFFFFFF MUL NOT AND SWAP1 DUP4 PUSH20 0xFFFFFFFFFFFFFFFFFFFFFFFFFFFFFFFFFFFFFFFF AND MUL OR SWAP1 SSTORE POP PUSH1 0x0 PUSH1 0x1 PUSH1 0x0 PUSH2 0x100 EXP DUP2 SLOAD DUP2 PUSH20 0xFFFFFFFFFFFFFFFFFFFFFFFFFFFFFFFFFFFFFFFF MUL NOT AND SWAP1 DUP4 PUSH20 0xFFFFFFFFFFFFFFFFFFFFFFFFFFFFFFFFFFFFFFFF AND MUL OR SWAP1 SSTORE POP PUSH32 0xFFFFFFFFFFFFFFFFFFFFFFFFFFFFFFFFFFFFFFFFFFFFFFFFFFFFFFFFFFFFFFFF PUSH1 0x5 DUP2 SWAP1 SSTORE POP POP POP JUMP JUMPDEST PUSH1 0x5 SLOAD DUP2 JUMP JUMPDEST PUSH1 0x5 SLOAD TIMESTAMP LT ISZERO PUSH2 0x5EE JUMPI PUSH1 0x0 DUP1 REVERT JUMPDEST PUSH1 0x1 PUSH1 0x0 SWAP1 SLOAD SWAP1 PUSH2 0x100 EXP SWAP1 DIV PUSH20 0xFFFFFFFFFFFFFFFFFFFFFFFFFFFFFFFFFFFFFFFF AND PUSH20 0xFFFFFFFFFFFFFFFFFFFFFFFFFFFFFFFFFFFFFFFF AND PUSH2 0x8FC SELFBALANCE SWAP1 DUP2 ISZERO MUL SWAP1 PUSH1 0x40 MLOAD PUSH1 0x0 PUSH1 0x40 MLOAD DUP1 DUP4 SUB DUP2 DUP6 DUP9 DUP9 CALL SWAP4 POP POP POP POP ISZERO DUP1 ISZERO PUSH2 0x656 JUMPI RETURNDATASIZE PUSH1 0x0 DUP1 RETURNDATACOPY RETURNDATASIZE PUSH1 0x0 REVERT JUMPDEST POP PUSH1 0x0 PUSH1 0x4 DUP2 SWAP1 SSTORE POP PUSH1 0x0 DUP1 PUSH1 0x0 PUSH2 0x100 EXP DUP2 SLOAD DUP2 PUSH20 0xFFFFFFFFFFFFFFFFFFFFFFFFFFFFFFFFFFFFFFFF MUL NOT AND SWAP1 DUP4 PUSH20 0xFFFFFFFFFFFFFFFFFFFFFFFFFFFFFFFFFFFFFFFF AND MUL OR SWAP1 SSTORE POP PUSH1 0x0 PUSH1 0x1 PUSH1 0x0 PUSH2 0x100 EXP DUP2 SLOAD DUP2 PUSH20 0xFFFFFFFFFFFFFFFFFFFFFFFFFFFFFFFFFFFFFFFF MUL NOT AND SWAP1 DUP4 PUSH20 0xFFFFFFFFFFFFFFFFFFFFFFFFFFFFFFFFFFFFFFFF AND MUL OR SWAP1 SSTORE POP PUSH32 0xFFFFFFFFFFFFFFFFFFFFFFFFFFFFFFFFFFFFFFFFFFFFFFFFFFFFFFFFFFFFFFFF PUSH1 0x5 DUP2 SWAP1 SSTORE POP JUMP JUMPDEST PUSH1 0x0 DUP3 DUP3 PUSH1 0x40 MLOAD PUSH1 0x20 ADD PUSH2 0x720 SWAP3 SWAP2 SWAP1 PUSH2 0xAD3 JUMP JUMPDEST PUSH1 0x40 MLOAD PUSH1 0x20 DUP2 DUP4 SUB SUB DUP2 MSTORE SWAP1 PUSH1 0x40 MSTORE DUP1 MLOAD SWAP1 PUSH1 0x20 ADD KECCAK256 SWAP1 POP SWAP3 SWAP2 POP POP JUMP JUMPDEST PUSH1 0x0 DUP1 SLOAD SWAP1 PUSH2 0x100 EXP SWAP1 DIV PUSH20 0xFFFFFFFFFFFFFFFFFFFFFFFFFFFFFFFFFFFFFFFF AND PUSH20 0xFFFFFFFFFFFFFFFFFFFFFFFFFFFFFFFFFFFFFFFF AND CALLER PUSH20 0xFFFFFFFFFFFFFFFFFFFFFFFFFFFFFFFFFFFFFFFF AND EQ PUSH2 0x796 JUMPI PUSH1 0x0 DUP1 REVERT JUMPDEST PUSH1 0x0 PUSH20 0xFFFFFFFFFFFFFFFFFFFFFFFFFFFFFFFFFFFFFFFF AND PUSH1 0x1 PUSH1 0x0 SWAP1 SLOAD SWAP1 PUSH2 0x100 EXP SWAP1 DIV PUSH20 0xFFFFFFFFFFFFFFFFFFFFFFFFFFFFFFFFFFFFFFFF AND PUSH20 0xFFFFFFFFFFFFFFFFFFFFFFFFFFFFFFFFFFFFFFFF AND EQ PUSH2 0x7F1 JUMPI PUSH1 0x0 DUP1 REVERT JUMPDEST PUSH1 0x0 DUP1 SLOAD SWAP1 PUSH2 0x100 EXP SWAP1 DIV PUSH20 0xFFFFFFFFFFFFFFFFFFFFFFFFFFFFFFFFFFFFFFFF AND PUSH20 0xFFFFFFFFFFFFFFFFFFFFFFFFFFFFFFFFFFFFFFFF AND PUSH2 0x8FC SELFBALANCE SWAP1 DUP2 ISZERO MUL SWAP1 PUSH1 0x40 MLOAD PUSH1 0x0 PUSH1 0x40 MLOAD DUP1 DUP4 SUB DUP2 DUP6 DUP9 DUP9 CALL SWAP4 POP POP POP POP ISZERO DUP1 ISZERO PUSH2 0x857 JUMPI RETURNDATASIZE PUSH1 0x0 DUP1 RETURNDATACOPY RETURNDATASIZE PUSH1 0x0 REVERT JUMPDEST POP PUSH1 0x0 PUSH1 0x4 DUP2 SWAP1 SSTORE POP PUSH1 0x0 DUP1 PUSH1 0x0 PUSH2 0x100 EXP DUP2 SLOAD DUP2 PUSH20 0xFFFFFFFFFFFFFFFFFFFFFFFFFFFFFFFFFFFFFFFF MUL NOT AND SWAP1 DUP4 PUSH20 0xFFFFFFFFFFFFFFFFFFFFFFFFFFFFFFFFFFFFFFFF AND MUL OR SWAP1 SSTORE POP PUSH32 0xFFFFFFFFFFFFFFFFFFFFFFFFFFFFFFFFFFFFFFFFFFFFFFFFFFFFFFFFFFFFFFFF PUSH1 0x5 DUP2 SWAP1 SSTORE POP JUMP JUMPDEST PUSH1 0x0 DUP2 SWAP1 POP SWAP2 SWAP1 POP JUMP JUMPDEST PUSH2 0x8DD DUP2 PUSH2 0x8CA JUMP JUMPDEST DUP3 MSTORE POP POP JUMP JUMPDEST PUSH1 0x0 PUSH1 0x20 DUP3 ADD SWAP1 POP PUSH2 0x8F8 PUSH1 0x0 DUP4 ADD DUP5 PUSH2 0x8D4 JUMP JUMPDEST SWAP3 SWAP2 POP POP JUMP JUMPDEST PUSH1 0x0 DUP1 REVERT JUMPDEST PUSH1 0x0 DUP2 SWAP1 POP SWAP2 SWAP1 POP JUMP JUMPDEST PUSH2 0x916 DUP2 PUSH2 0x903 JUMP JUMPDEST DUP2 EQ PUSH2 0x921 JUMPI PUSH1 0x0 DUP1 REVERT JUMPDEST POP JUMP JUMPDEST PUSH1 0x0 DUP2 CALLDATALOAD SWAP1 POP PUSH2 0x933 DUP2 PUSH2 0x90D JUMP JUMPDEST SWAP3 SWAP2 POP POP JUMP JUMPDEST PUSH1 0x0 PUSH1 0x20 DUP3 DUP5 SUB SLT ISZERO PUSH2 0x94F JUMPI PUSH2 0x94E PUSH2 0x8FE JUMP JUMPDEST JUMPDEST PUSH1 0x0 PUSH2 0x95D DUP5 DUP3 DUP6 ADD PUSH2 0x924 JUMP JUMPDEST SWAP2 POP POP SWAP3 SWAP2 POP POP JUMP JUMPDEST PUSH1 0x0 DUP2 ISZERO ISZERO SWAP1 POP SWAP2 SWAP1 POP JUMP JUMPDEST PUSH2 0x97B DUP2 PUSH2 0x966 JUMP JUMPDEST DUP2 EQ PUSH2 0x986 JUMPI PUSH1 0x0 DUP1 REVERT JUMPDEST POP JUMP JUMPDEST PUSH1 0x0 DUP2 CALLDATALOAD SWAP1 POP PUSH2 0x998 DUP2 PUSH2 0x972 JUMP JUMPDEST SWAP3 SWAP2 POP POP JUMP JUMPDEST PUSH1 0x0 PUSH1 0x20 DUP3 DUP5 SUB SLT ISZERO PUSH2 0x9B4 JUMPI PUSH2 0x9B3 PUSH2 0x8FE JUMP JUMPDEST JUMPDEST PUSH1 0x0 PUSH2 0x9C2 DUP5 DUP3 DUP6 ADD PUSH2 0x989 JUMP JUMPDEST SWAP2 POP POP SWAP3 SWAP2 POP POP JUMP JUMPDEST PUSH2 0x9D4 DUP2 PUSH2 0x8CA JUMP JUMPDEST DUP2 EQ PUSH2 0x9DF JUMPI PUSH1 0x0 DUP1 REVERT JUMPDEST POP JUMP JUMPDEST PUSH1 0x0 DUP2 CALLDATALOAD SWAP1 POP PUSH2 0x9F1 DUP2 PUSH2 0x9CB JUMP JUMPDEST SWAP3 SWAP2 POP POP JUMP JUMPDEST PUSH1 0x0 DUP1 PUSH1 0x40 DUP4 DUP6 SUB SLT ISZERO PUSH2 0xA0E JUMPI PUSH2 0xA0D PUSH2 0x8FE JUMP JUMPDEST JUMPDEST PUSH1 0x0 PUSH2 0xA1C DUP6 DUP3 DUP7 ADD PUSH2 0x989 JUMP JUMPDEST SWAP3 POP POP PUSH1 0x20 PUSH2 0xA2D DUP6 DUP3 DUP7 ADD PUSH2 0x9E2 JUMP JUMPDEST SWAP2 POP POP SWAP3 POP SWAP3 SWAP1 POP JUMP JUMPDEST PUSH2 0xA40 DUP2 PUSH2 0x903 JUMP JUMPDEST DUP3 MSTORE POP POP JUMP JUMPDEST PUSH1 0x0 PUSH1 0x20 DUP3 ADD SWAP1 POP PUSH2 0xA5B PUSH1 0x0 DUP4 ADD DUP5 PUSH2 0xA37 JUMP JUMPDEST SWAP3 SWAP2 POP POP JUMP JUMPDEST PUSH32 0x4E487B7100000000000000000000000000000000000000000000000000000000 PUSH1 0x0 MSTORE PUSH1 0x11 PUSH1 0x4 MSTORE PUSH1 0x24 PUSH1 0x0 REVERT JUMPDEST PUSH1 0x0 PUSH2 0xA9B DUP3 PUSH2 0x8CA JUMP JUMPDEST SWAP2 POP PUSH2 0xAA6 DUP4 PUSH2 0x8CA JUMP JUMPDEST SWAP3 POP DUP3 DUP3 ADD SWAP1 POP DUP1 DUP3 GT ISZERO PUSH2 0xABE JUMPI PUSH2 0xABD PUSH2 0xA61 JUMP JUMPDEST JUMPDEST SWAP3 SWAP2 POP POP JUMP JUMPDEST PUSH2 0xACD DUP2 PUSH2 0x966 JUMP JUMPDEST DUP3 MSTORE POP POP JUMP JUMPDEST PUSH1 0x0 PUSH1 0x40 DUP3 ADD SWAP1 POP PUSH2 0xAE8 PUSH1 0x0 DUP4 ADD DUP6 PUSH2 0xAC4 JUMP JUMPDEST PUSH2 0xAF5 PUSH1 0x20 DUP4 ADD DUP5 PUSH2 0x8D4 JUMP JUMPDEST SWAP4 SWAP3 POP POP POP JUMP INVALID LOG2 PUSH5 0x6970667358 0x22 SLT KECCAK256 0x25 0xE7 0xBA DUP8 0xDE 0x1E MULMOD PUSH25 0xBDFDAF8561F84A4E379B283E2281990062553F81F58CC8EB64 PUSH20 0x6F6C634300081100330000000000000000000000 "
				},
				"gasEstimates": {
					"creation": {
						"codeDepositCost": "573200",
						"executionCost": "71246",
						"totalCost": "644446"
					},
					"external": {
						"bet()": "2430",
						"cancel()": "infinite",
						"expiration()": "2429",
						"getHash(bool,uint256)": "infinite",
						"makeBet(bytes32)": "71088",
						"reveal(bool,uint256)": "infinite",
						"takeBet(bool)": "infinite",
						"timeout()": "infinite"
					}
				},
				"methodIdentifiers": {
					"bet()": "11610c25",
					"cancel()": "ea8a1af0",
					"expiration()": "4665096d",
					"getHash(bool,uint256)": "e6759813",
					"makeBet(bytes32)": "284152dc",
					"reveal(bool,uint256)": "39f3027d",
					"takeBet(bool)": "38a3fde7",
					"timeout()": "70dea79a"
				}
			},
			"storageLayout": {
				"storage": [
					{
						"astId": 7,
						"contract": "Coin Flip Contract.sol:CoinFlip",
						"label": "player1",
						"offset": 0,
						"slot": "0",
						"type": "t_address_payable"
					},
					{
						"astId": 13,
						"contract": "Coin Flip Contract.sol:CoinFlip",
						"label": "player2",
						"offset": 0,
						"slot": "1",
						"type": "t_address_payable"
					},
					{
						"astId": 15,
						"contract": "Coin Flip Contract.sol:CoinFlip",
						"label": "p1selection",
						"offset": 0,
						"slot": "2",
						"type": "t_bytes32"
					},
					{
						"astId": 17,
						"contract": "Coin Flip Contract.sol:CoinFlip",
						"label": "p2selection",
						"offset": 0,
						"slot": "3",
						"type": "t_bool"
					},
					{
						"astId": 19,
						"contract": "Coin Flip Contract.sol:CoinFlip",
						"label": "bet",
						"offset": 0,
						"slot": "4",
						"type": "t_uint256"
					},
					{
						"astId": 26,
						"contract": "Coin Flip Contract.sol:CoinFlip",
						"label": "expiration",
						"offset": 0,
						"slot": "5",
						"type": "t_uint256"
					}
				],
				"types": {
					"t_address_payable": {
						"encoding": "inplace",
						"label": "address payable",
						"numberOfBytes": "20"
					},
					"t_bool": {
						"encoding": "inplace",
						"label": "bool",
						"numberOfBytes": "1"
					},
					"t_bytes32": {
						"encoding": "inplace",
						"label": "bytes32",
						"numberOfBytes": "32"
					},
					"t_uint256": {
						"encoding": "inplace",
						"label": "uint256",
						"numberOfBytes": "32"
					}
				}
			},
			"userdoc": {
				"kind": "user",
				"methods": {},
				"version": 1
			}
		}
	}
}